:100000000C945D000C9485000C9485000C94850084
:100010000C9485000C9485000C9485000C9485004C
:100020000C9485000C9485000C9485000C9485003C
:100030000C9485000C9485000C9485000C9485002C
:100040000C9443050C9485000C9411050C94EB045E
:100050000C9485000C9485000C9485000C9485000C
:100060000C9485000C94850000000008000201003B
:100070000003040700000000000000000000000072
:10008000250028002B0000000000240027002A0083
:10009000040404040404040402020202020203032E
:1000A0000303030301020408102040800102040836
:1000B00010200102040810208D0511241FBECFEF6F
:1000C000D8E0DEBFCDBF11E0A0E0B1E0E0E8F2E1B2
:1000D00002C005900D92A635B107D9F722E0A6E53A
:1000E000B1E001C01D92AC31B207E1F710E0CDE5FF
:1000F000D0E004C02197FE010E943309CC35D1071E
:10010000C9F70E94D8050C943E090C94000090E0B9
:10011000FC01EC55FF4F2491FC01E057FF4F849107
:10012000882399F090E0880F991FFC01EA57FF4F50
:10013000A591B491FC01E458FF4F859194918FB73C
:10014000F894EC91E22BEC938FBF0895CF92DF925D
:10015000EF92FF920F931F93CF93DF936C017A017D
:100160008B01C0E0D0E0CE15DF0589F0D8016D919C
:100170008D01D601ED91FC910190F081E02DC60139
:100180000995892B11F47E0102C02196ECCFC7019D
:10019000DF91CF911F910F91FF90EF90DF90CF9063
:1001A0000895FC01918D828D981761F0828DDF0199
:1001B000A80FB11D5D968C91928D9F5F9F73928F5A
:1001C00090E008958FEF9FEF0895FC01918D828D4F
:1001D000981731F0828DE80FF11D858D90E008951C
:1001E0008FEF9FEF0895FC01918D228D892F90E074
:1001F000805C9F4F821B91098F739927089587E632
:1002000091E00E94F30021E0892B09F420E0822F85
:100210000895FC01848DDF01A80FB11DA35ABF4FC3
:100220002C91848D90E001968F739927848FA689F5
:10023000B7892C93A089B1898C9180648C93938D1C
:10024000848D981306C00288F389E02D80818F7D0C
:1002500080830895EF92FF920F931F93CF93DF93C4
:10026000EC0181E0888F9B8D8C8D981305C0E88907
:10027000F989808185FD24C0F62E0B8D10E00F5F7B
:100280001F4F0F731127E02E8C8DE8120CC00FB694
:1002900007FCFACFE889F989808185FFF5CFCE0187
:1002A0000E940901F1CF8B8DFE01E80FF11DE35A89
:1002B000FF4FF0820B8FEA89FB898081806207C043
:1002C000EE89FF896083E889F98980818064808371
:1002D00081E090E0DF91CF911F910F91FF90EF901F
:1002E0000895CF93DF93EC01888D8823C9F0EA89C4
:1002F000FB89808185FD05C0A889B9898C9186FD1F
:100300000FC00FB607FCF5CF808185FFF2CFA8891B
:10031000B9898C9185FFEDCFCE010E940901E7CF0D
:10032000DF91CF91089580E090E0892B29F00E9421
:10033000FF0081110C940000089590E0FC01E85941
:10034000FF4F3491FC01EC55FF4F2491FC01E05725
:10035000FF4FE491EE2309F43BC0332339F13330EE
:1003600091F038F43130A9F0323001F584B58F7D49
:1003700012C0373091F03830A1F03430B9F48091A8
:1003800080008F7D03C0809180008F7780938000F4
:100390000DC084B58F7784BD09C08091B0008F7780
:1003A00003C08091B0008F7D8093B000F0E0EE0F2D
:1003B000FF1FE458FF4FA591B4918FB7F894EC91CB
:1003C000611103C020952E2301C02E2B2C938FBFCB
:1003D00008958E3008F08E508770806480937C0082
:1003E00080917A00806480937A0080917A0086FD03
:1003F000FCCF809178002091790090E0922B0895B5
:100400003FB7F89480915B0190915C01A0915D01F0
:10041000B0915E0126B5A89B05C02F3F19F001964B
:10042000A11DB11D3FBFBA2FA92F982F8827820F7A
:10043000911DA11DB11DBC01CD0142E0660F771FCA
:10044000881F991F4A95D1F708958F929F92AF9276
:10045000BF92CF92DF92EF92FF926B017C010E94DC
:1004600000024B015C01C114D104E104F104F1F07C
:100470000E940002DC01CB0188199909AA09BB0975
:10048000883E9340A105B10570F321E0C21AD1085E
:10049000E108F10888EE880E83E0981EA11CB11CCB
:1004A000C114D104E104F10419F7DDCFFF90EF90FE
:1004B000DF90CF90BF90AF909F908F900895CF9393
:1004C000DF93EC0160E08E810E949D0161E08E81EE
:1004D0000E949D0160E08E810E949D018BE891E069
:1004E0000197F1F7DF91CF910895CF92DF92EF92CC
:1004F000FF920F931F93CF93DF937C016C0187E0F2
:10050000C80ED11CC0E0D0E0062F10E0B8010C2EC0
:1005100002C0759567950A94E2F76170F6018191C2
:100520006F010E949D012196C430D10579F7C70162
:10053000DF91CF911F910F91FF90EF90DF90CF90BF
:100540000C945F02CF92DF92EF92FF920F931F9372
:10055000CF93DF93EC01F62E642F8C810E949D01D6
:100560008D818F3F19F060E00E949D018F850F2DD6
:1005700010E084FF25C06E0187E0C80ED11CE12C7D
:10058000F12CB8010E2C02C0759567950A94E2F71C
:100590006170F60181916F010E949D01FFEFEF1ADA
:1005A000FF0A88E0E816F10461F7CE01DF91CF91F0
:1005B0001F910F91FF90EF90DF90CF900C945F020E
:1005C000B80184E0759567958A95E1F7CE010E94A0
:1005D00075026F2DCE01DF91CF911F910F91FF908A
:1005E000EF90DF90CF900C94750241E00E94A20240
:1005F00081E090E0089540E00C94A202EF92FF9217
:100600000F931F93CF93DF93EC01623018F08F8527
:1006100088608F876B8B1C8A80E48D8B80E18E8B4A
:1006200080E58F8B8C810E9487008D818F3F11F038
:100630000E9487008E810E9487007E0187E0E80E7D
:10064000F11C00E010E08F8584FD03C084E090E0A1
:1006500002C088E090E00817190744F4F70181917F
:100660007F010E9487000F5F1F4FEDCF8BE39DE05E
:100670000197F1F760E08C810E949D0160E08E811E
:100680000E949D018D818F3F19F060E00E949D01C5
:100690006F8564FD1DC063E0CE010E9475020BE40E
:1006A00016E4C8010197F1F763E0CE010E947502DC
:1006B000C8010197F1F763E0CE010E94750283E55E
:1006C00092E00197F1F762E0CE010E94750216C038
:1006D0006062CE010E94FB028BE496E40197F1F781
:1006E0006F856062CE010E94FB0283E592E0019774
:1006F000F1F76F856062CE010E94FB026F85606238
:10070000CE010E94FB0284E0888B6CE0CE010E9447
:10071000FB0261E0CE010E94FB028BE39FE10197A7
:10072000F1F782E0898B66E0CE01DF91CF911F91D6
:100730000F91FF90EF900C94FB02643008F063E09F
:1007400090911702691710F06FEF690FE62FF0E034
:10075000EC5FFD4F9489682F690F606884E092E038
:100760000C94FB02009769F0FC0101900020E9F76E
:100770003197AF01481B590BBC0184E092E00C9407
:10078000A60080E090E008958F929F92AF92BF9272
:100790000F931F93CF93DF93CDB7DEB7A1970FB61B
:1007A000F894DEBF0FBECDBF19A2423008F44AE074
:1007B0008E010F5D1F4F842E912CA12CB12CA50111
:1007C00094010E941109E62FB901CA0101501109D3
:1007D000EA3014F4E05D01C0E95CD801EC93232B0E
:1007E000242B252B61F7C8010E94B203A1960FB6F6
:1007F000F894DEBF0FBECDBFDF91CF911F910F9157
:10080000BF90AF909F908F9008954F925F926F929C
:100810007F928F929F92AF92BF92CF92DF92EF9290
:10082000FF926B017C01B42E9B01AC010E940C096C
:10083000882319F088E191E027C026013701E89468
:1008400077F82FEF3FEF4FE75FE7C301B2010E9458
:100850000C0981110DC02FEF3FEF4FE75FE7C30198
:10086000B2010E94420718161CF48CE191E00CC002
:100870002FEF3FEF4FE75FE4C701B6010E949A08F0
:10088000181684F480E291E0FF90EF90DF90CF9013
:10089000BF90AF909F908F907F906F905F904F90A0
:1008A0000C94B2032FEF3FEF4FE75FECC701B601A7
:1008B0000E94420787FDE6CF20E030E0A901C70192
:1008C000B6010E94420787FF11C0E0910402F09137
:1008D00005020190F081E02D6DE284E092E009953F
:1008E0004C01F7FAF094F7F8F09402C0812C912CA7
:1008F000A12C60E070E080E09FE3AB1441F020E0C9
:1009000030E040E251E40E944707A394F6CF9B01F8
:10091000AC01C701B6010E94D6062B013C010E9422
:10092000B9076B017C010E94E8079B01AC01C30180
:10093000B2010E94D5062B013C014AE0C701B60175
:100940000E94C4037C01E80CF91CBB2069F0E09113
:100950000402F09105020190F081E02D6EE284E046
:1009600092E00995E80EF91EDB2CDD2021F120E054
:1009700030E040E251E4C301B2010E949F082B0124
:100980003C010E94B9074B01A12CB12C4AE0C501E2
:10099000B4010E94C403E80EF91EC501B4010E940F
:1009A000E8079B01AC01C301B2010E94D5062B01EF
:1009B0003C01DA94DACFC701FF90EF90DF90CF903F
:1009C000BF90AF909F908F907F906F905F904F906F
:1009D00008950E9439091F920F920FB60F921124A9
:1009E0002F933F934F935F936F937F938F939F9337
:1009F000AF93BF93EF93FF9387E691E00E940901C5
:100A0000FF91EF91BF91AF919F918F917F916F91E6
:100A10005F914F913F912F910F900FBE0F901F90BC
:100A200018951F920F920FB60F9211242F938F9348
:100A30009F93EF93FF93E0917701F091780180818C
:100A4000E0917D01F0917E0182FD12C09081809144
:100A500080018F5F8F7320918101821751F0E091A7
:100A60008001F0E0E959FE4F958F8093800101C02D
:100A70008081FF91EF919F918F912F910F900FBEE9
:100A80000F901F9018951F920F920FB60F9211247E
:100A90002F933F938F939F93AF93BF938091570171
:100AA00090915801A0915901B0915A01309156018D
:100AB00023E0230F2D3720F40196A11DB11D05C0A1
:100AC00026E8230F0296A11DB11D209356018093A5
:100AD000570190935801A0935901B0935A01809106
:100AE0005B0190915C01A0915D01B0915E01019666
:100AF000A11DB11D80935B0190935C01A0935D01EA
:100B0000B0935E01BF91AF919F918F913F912F91D3
:100B10000F900FBE0F901F901895E7E6F1E013823B
:100B2000128288EE93E0A0E0B0E084839583A683F0
:100B3000B78384E091E09183808385EC90E0958792
:100B4000848784EC90E09787868780EC90E0918B97
:100B5000808B81EC90E0938B828B82EC90E0958B84
:100B6000848B86EC90E0978B868B118E128E138E81
:100B7000148EE4E0F2E01382128284E191E091832A
:100B800080838BE084838FEF85838CE086838AE08B
:100B9000878389E0808788E0818787E08287138662
:100BA000148615861686178661E0CF010C94FE0226
:100BB000789484B5826084BD84B5816084BD85B538
:100BC000826085BD85B5816085BD80916E00816044
:100BD00080936E00109281008091810082608093EA
:100BE00081008091810081608093810080918000EC
:100BF0008160809380008091B10084608093B10017
:100C00008091B00081608093B00080917A00846010
:100C100080937A0080917A00826080937A0080913C
:100C20007A00816080937A0080917A008068809356
:100C30007A001092C100E0917701F091780182E092
:100C40008083E0917301F09174011082E09175014D
:100C5000F09176018FEC808310927F01E0917B010F
:100C6000F0917C0186E08083E0917901F0917A0136
:100C7000808180618083E0917901F0917A018081A7
:100C800088608083E0917901F0917A0180818068A9
:100C90008083E0917901F0917A0180818F7D80835A
:100CA00062E084E092E00E94FE0260E080E00E9448
:100CB0009D0384E291E00E94B20361E080E00E9423
:100CC0009D0380E391E00E94B20360ED77E080E055
:100CD00090E00E94250261E084E092E00E94FB0225
:100CE0008BE39FE10197F1F760E080E00E949D03B4
:100CF00080E491E00E94B20361E080E00E949D03E5
:100D00008BE491E00E94B2038EE00E94E901BC01F5
:100D1000990F880B990B0E94EA0726E636E646E60D
:100D20005CE30E949F086B017C01609363017093F8
:100D3000640180936501909366018FE00E94E90150
:100D4000BC01990F880B990B0E94EA0723E333E358
:100D500043EB5EE30E949F0860935F017093600124
:100D6000809361019093620160E08AE00E949D039C
:100D700042E0C701B6010E94050461E08AE00E94DA
:100D80009D0360915F01709160018091610190917C
:100D9000620142E00E94050468EE73E080E090E0AA
:100DA0000E9425020E949301AFCF5058BB27AA276B
:100DB0000E94ED060C9460080E94520838F00E94D0
:100DC000590820F039F49F3F19F426F40C944F0889
:100DD0000EF4E095E7FB0C944908E92F0E94710896
:100DE00058F3BA17620773078407950720F079F460
:100DF000A6F50C9493080EF4E0950B2EBA2FA02DB7
:100E00000B01B90190010C01CA01A0011124FF27B7
:100E1000591B99F0593F50F4503E68F11A16F040B2
:100E2000A22F232F342F4427585FF3CF46953795B1
:100E30002795A795F0405395C9F77EF41F16BA0B76
:100E4000620B730B840BBAF09150A1F0FF0FBB1F24
:100E5000661F771F881FC2F70EC0BA0F621F731F6D
:100E6000841F48F4879577956795B795F7959E3FCA
:100E700008F0B0CF9395880F08F09927EE0F97955B
:100E8000879508950E94250808F481E008950E943E
:100E90005B070C9460080E94590858F00E945208A1
:100EA00040F029F45F3F29F00C94490851110C944B
:100EB00094080C944F080E94710868F39923B1F3C9
:100EC000552391F3951B550BBB27AA276217730770
:100ED000840738F09F5F5F4F220F331F441FAA1F04
:100EE000A9F335D00E2E3AF0E0E832D091505040C0
:100EF000E695001CCAF72BD0FE2F29D0660F771F6E
:100F0000881FBB1F261737074807AB07B0E809F053
:100F1000BB0B802DBF01FF2793585F4F3AF09E3FD8
:100F2000510578F00C9449080C9494085F3FE4F361
:100F3000983ED4F3869577956795B795F7959F5F1B
:100F4000C9F7880F911D9695879597F90895E1E067
:100F5000660F771F881FBB1F621773078407BA07C6
:100F600020F0621B730B840BBA0BEE1F88F7E09521
:100F700008950E94790888F09F5798F0B92F992713
:100F8000B751B0F0E1F0660F771F881F991F1AF074
:100F9000BA95C9F714C0B13091F00E949308B1E03E
:100FA00008950C949308672F782F8827B85F39F03D
:100FB000B93FCCF3869577956795B395D9F73EF40D
:100FC00090958095709561957F4F8F4F9F4F0895B5
:100FD000E89409C097FB3EF49095809570956195D3
:100FE0007F4F8F4F9F4F9923A9F0F92F96E9BB2789
:100FF0009395F695879577956795B795F111F8CF05
:10100000FAF4BB0F11F460FF1BC06F5F7F4F8F4F6F
:101010009F4F16C0882311F096E911C0772321F065
:101020009EE8872F762F05C0662371F096E8862FFD
:1010300070E060E02AF09A95660F771F881FDAF754
:10104000880F9695879597F90895990F0008550F81
:10105000AA0BE0E8FEEF16161706E807F907C0F03E
:1010600012161306E407F50798F0621B730B840B46
:10107000950B39F40A2661F0232B242B252B21F420
:1010800008950A2609F4A140A6958FEF811D811DC0
:10109000089597F99F6780E870E060E008959FEFFA
:1010A00080EC089500240A941616170618060906FF
:1010B000089500240A9412161306140605060895CE
:1010C000092E0394000C11F4882352F0BB0F40F456
:1010D000BF2B11F460FF04C06F5F7F4F8F4F9F4F96
:1010E000089557FD9058440F551F59F05F3F71F018
:1010F0004795880F97FB991F61F09F3F79F087957F
:101100000895121613061406551FF2CF4695F1DF07
:1011100008C0161617061806991FF1CF8695710597
:10112000610508940895E894BB2766277727CB01CB
:1011300097F908950E94250808F48FEF08950E94FA
:10114000B2080C9460080E94520838F00E945908B6
:1011500020F0952311F00C9449080C944F081124A9
:101160000C9494080E94710870F3959FC1F3950F39
:1011700050E0551F629FF001729FBB27F00DB11D1B
:10118000639FAA27F00DB11DAA1F649F6627B00DAB
:10119000A11D661F829F2227B00DA11D621F739F94
:1011A000B00DA11D621F839FA00D611D221F749FA2
:1011B0003327A00D611D231F849F600D211D822FE9
:1011C000762F6A2F11249F5750409AF0F1F0882310
:1011D0004AF0EE0FFF1FBB1F661F771F881F91503D
:1011E0005040A9F79E3F510580F00C9449080C949B
:1011F00094085F3FE4F3983ED4F38695779567951E
:10120000B795F795E7959F5FC1F7FE2B880F911D66
:101210009695879597F908950E942508880B990B54
:101220000895A1E21A2EAA1BBB1BFD010DC0AA1F27
:10123000BB1FEE1FFF1FA217B307E407F50720F03F
:10124000A21BB30BE40BF50B661F771F881F991FBA
:101250001A9469F760957095809590959B01AC0103
:10126000BD01CF010895EE0FFF1F0590F491E02D11
:10127000099481E090E0F8940C943E09F894FFCF33
:10128000000000002A01A600F300D100E500710172
:1012900000000000F502A6006E616E00696E660037
:1012A0006F7666003132562043686172676572005E
:1012B0002D436972637569742044696765737400AE
:1012C000566F6C74616765203D20004375727265CE
:0612D0006E74203D2000B9
:00000001FF
